:020000040800F2
:10000000700D01209D010008552C0008D52800081E
:10001000512C0008390600087D3E00080000000051
:10002000000000000000000000000000C92C0008D3
:100030005508000800000000C52C0008212D00080C
:10004000B7010008B7010008B7010008B7010008B0
:10005000B7010008B7010008B7010008B7010008A0
:10006000B7010008B7010008B7010008B701000890
:10007000B7010008B7010008B7010008B701000880
:10008000B70100083D060008B7010008B7010008E5
:10009000B7010008B7010008B7010008B701000860
:1000A000B7010008B7010008B7010008B701000850
:1000B000B7010008912E0008E9300008B7010008D8
:1000C000B7010008B7010008B7010008B701000830
:1000D000B7010008B7010008213E0008B701000879
:1000E000B7010008B7010008B7010008B701000810
:1000F000B7010008B7010008B7010008B701000800
:10010000B7010008B7010008B7010008B7010008EF
:10011000B7010008B7010008E1310008B701000885
:10012000B7010008B701000871060008B701000810
:10013000B7010008B7010008B7010008B7010008BF
:10014000B7010008B7010008B7010008B7010008AF
:10015000B7010008B7010008B7010008B70100089F
:10016000B7010008B7010008B7010008B70100088F
:10017000B7010008B7010008B7010008000000003F
:10018000B7010008B7010008DFF80CD000F042FA10
:1001900000480047FD3F0008700D012006488047D9
:1001A00006480047FEE7FEE7FEE7FEE7FEE7FEE75C
:1001B000FEE7FEE7FEE7FEE7E52D000889010008FF
:1001C0002DE9F05F0546002092469B46884606468C
:1001D000814640241BE0284641464746224600F01F
:1001E00074F953465A46C01A914110D31146184625
:1001F000224600F05BF92D1A67EB01084F462246B4
:100200000120002100F052F917EB00094E41201E99
:10021000A4F10104DFDC484631462A464346BDE8E6
:10022000F09F40EA01039B0703D009E008C9121FB1
:1002300008C0042AFAD203E011F8013B00F8013BA0
:10024000521EF9D27047D2B201E000F8012B491ECC
:10025000FBD270470022F6E710B513460A46044663
:100260001946FFF7F0FF204610BD2DE9FE4F81EA49
:10027000030404F0004421F0004100944FF0000B0F
:1002800023F0004350EA01045ED052EA03045BD03D
:10029000C3F30A54C1F30A552C44A4F2F334019475
:1002A000A0FB0254C1F3130141F48011C3F3130303
:1002B00043F4801301FB024400FB034E840A970AB7
:1002C00044EA815447EA8357A4FB076802958D0AE4
:1002D00005FB07854FEA932C04FB0C542705029D70
:1002E0004FEA065847EA1637B5EB08056EEB070CE0
:1002F000870E920E47EA811742EA8312A7FB02019A
:10030000B6EB0B0164EB00042B0D43EA0C335E18D3
:1003100044EB1C50DA465146E7FB0201C5F31304D7
:100320004FEA0B3343EA14534FEA0432019C43EA89
:100330000603A4F10C040294009CCDE900B400F083
:100340001AF903B0BDE8F08F00200146F9E72DE966
:10035000F04D81EA030404F0004B21F000451446FF
:100360004FF0000A23F0004150EA050220D054EA81
:1003700001021DD0C5F30A570246C5F31303C1F3AA
:100380001300C1F30A5640F4801543F48013A7EB21
:100390000608101BD64608F2FD3873EB050002D3A1
:1003A00008F1010801E092185B41B8F1000F03DA8F
:1003B00000200146BDE8F08D00204FF48011064674
:1003C00084460EE0171B73EB050705D3121B63EB86
:1003D000050306434CEA010C49084FEA3000921825
:1003E0005B4150EA0107EDD152EA030012D082EAE4
:1003F000040083EA0501084305D0101BAB4106D277
:100400000122002306E000224FF0004302E06FF0DB
:10041000010253101AEB06004CEB085110EB0A00D6
:1004200041EB0B01BDE8F04D00F096B80EB5C10FE1
:1004300080EAE0700844CA07002140F233438DE8A7
:100440000E000A460B4600F096F803B000BD00F01F
:10045000004230F000400AD0C10D01F56071C0F3D8
:10046000160042EA0151C2084007114370470020BC
:100470000146704701F0004330B421F0004150EADA
:10048000010206D00A0DA2F56072C1F31301002A21
:1004900002DC30BC00207047440F44EAC104C100B4
:1004A000E01830BC00EBC25000F01FB8202A04DB7B
:1004B000203A00FA02F1002070479140C2F1200377
:1004C00020FA03F3194390407047202A04DB203AB6
:1004D00021FA02F00021704721FA02F3D040C2F164
:1004E000200291400843194670470029A8BF704771
:1004F000401C490008BF20F00100704710B4B0FA5A
:1005000080FC00FA0CF050EA010404BF10BC7047F4
:1005100049B1CCF1200421FA04F411FA0CF118BF0E
:10052000012121430843A3EB0C01CB1D4FEA0061DD
:100530004FEA102042BF002010BC704700EBC350B0
:1005400010440029A4BF10BC7047401C490008BFDC
:1005500020F0010010BC704710B5141E73F10004A8
:1005600008DA401C41F1000192185B411A4301D1A5
:1005700020F0010010BD2DE9F04D92469B4611B1CF
:10058000B1FA81F202E0B0FA80F220329046FFF731
:100590008DFF04460F4640EA0A0041EA0B0153462C
:1005A0005A46084313D0114653EA010019D0C8F146
:1005B00040025046FFF789FF05460E465046594611
:1005C0004246FFF773FF084305D0012004E02046B0
:1005D0003946BDE8F08D0020054346EAE0762C431D
:1005E00037430A986305E40AA0EB08000022FD0ADD
:1005F00044EA47540A3002D500200146E9E70105E4
:1006000010196941DDE9084500196941BDE8F04D5F
:10061000A2E70000064C074D06E0E06840F0010349
:1006200094E8070098471034AC42F6D3FFF7B0FDCA
:10063000A4470008C4470008FFE7FEE780B546F27C
:100640000400C4F2020000688002002808D5FFE719
:1006500045F6EC61C2F20001202081F83D00FFE781
:1006600045F6B850C2F2000000F018FA80BD000054
:1006700080B540F61841C4F202010820086046F235
:100680000040C4F202000068800200280ED5FFE797
:1006900040F22800C2F200000068804746F208419C
:1006A000C4F202014FF440100860FFE740F6184121
:1006B000C4F202014FF40020086080BD82B00190B6
:1006C0000198007810384AF6AB21CAF6AA21A0FB9F
:1006D000011000090090009944F29470C0F60000E7
:1006E000405C0199C8650098042807D3FFE7019989
:1006F0000868042262F30900886506E00199086829
:1007000040F2FF3290438865FFE70198806D02B0A8
:100710007047000086B0059000208DF81300059802
:10072000806A03900598806910BBFFE703980290E8
:1007300003281BD80299DFE801F0020D0218059882
:1007400090F82F00C00720B1FFE701208DF81300BB
:10075000FFE70CE00598C06AB0F1C07F04D1FFE765
:1007600001208DF81300FFE701E000E0FFE745E01E
:1007700005988069B0F5005F25D1FFE703980190E7
:1007800003281ED80199DFE801F0020602110120BA
:100790008DF8130016E0059890F82F00C00720B1DF
:1007A000FFE701208DF81300FFE70BE00598C06A12
:1007B000B0F1C07F04D1FFE701208DF81300FFE7FF
:1007C00000E0FFE719E003980090032804D3FFE757
:1007D0000098032804D00EE001208DF813000BE0F0
:1007E000059890F82F00C00720B1FFE701208DF891
:1007F0001300FFE700E0FFE7FFE7FFE79DF81300C6
:1008000006B0704784B00390029101920093039860
:100810000168086820F4802008600098039909683E
:10082000486003988068402809D1FFE70198039940
:1008300009688860029803990968C86008E002980E
:10084000039909688860019803990968C860FFE7FF
:1008500004B070477047000045F65970C2F20000BE
:10086000007845F65871C2F200010A7845F64E71DB
:10087000C2F20001885445F65A70C2F200000078B6
:1008800078B9FFE745F65970C2F2000000783228C7
:1008900007D1FFE745F65A71C2F200010120087046
:1008A000FFE745F65A70C2F200000078002800F019
:1008B0009480FFE745F65870C2F2000001780131DC
:1008C000017000780628C0F28780FFE745F658716E
:1008D000C2F200010020087045F65A71C2F2000110
:1008E000087040F22801C2F2000140F6DD10C0F6A7
:1008F0000000086046F24042C4F20202106820F094
:100900000900106045F64E71C2F2000146F24C40FB
:10091000C4F20200016046F24443C4F2020306201E
:100920001860106840F480601060106840F00100AA
:100930001060087891F801C08B78CA7880EA0C00C2
:10094000584050400A79424045F63650C2F2000005
:10095000027000784979884235D1FFE745F64E713B
:10096000C2F200014888097940EA014045F6307139
:10097000C2F200010860086845F64472C2F2000243
:100980001368C31A45F63870C2F2000003600968A4
:100990001160036848F6AD31C6F6DB0153FB01F286
:1009A000111501EBD27141F6FF72C0F24E0201FB4C
:1009B00012310160026845F63471C2F20001086824
:1009C0001044086007E045F63851C2F2000108887B
:1009D00001300880FFE7FFE7FFE7704745F64E71FB
:1009E000C2F20001087891F801C08B78CA7880EAD9
:1009F0000C00584050400A79424045F63650C2F249
:100A00000000027000784979884235D1FFE745F649
:100A10004E71C2F200014888097940EA014045F66A
:100A20003071C2F200010860086845F64472C2F2F3
:100A300000021368C31A45F63870C2F20000036062
:100A400009681160036848F6AD31C6F6DB0153FB57
:100A500001F2111501EBD27141F6FF72C0F24E02A4
:100A600001FB12310160026845F63471C2F20001E7
:100A700008681044086007E045F63851C2F20001EA
:100A8000088801300880FFE77047000081B0EFF36D
:100A9000108072B60090FFE7FEE7000080B586B0D8
:100AA00005900020039040F20800C2F200000068A8
:100AB00048F2B511C1F64E31A0FB0110800A029038
:100AC0000598806D0190019800680490049805993C
:100AD000C96DC840000700281AD5FFE705980068CF
:100AE00000684007002812D5FFE7059801680868EC
:100AF00020F0040008600598C16D08208840019925
:100B000088600599486D40F001004865FFE7FFE700
:100B100004980599C96DC840C007A0B1FFE70598C2
:100B200000684069000600280CD5FFE70598C16DF4
:100B300001208840019988600599486D40F00200C5
:100B40004865FFE7FFE704980599C96DC84040076D
:100B5000002814D5FFE70598006800688007002882
:100B60000CD5FFE70598C16D042088400199886085
:100B70000599486D40F004004865FFE7FFE70498D9
:100B80000599C96DC840C006002847D5FFE70598FC
:100B900000680068000700283FD5FFE70598C16D91
:100BA000102088400199886005980068006840031B
:100BB00000281AD5FFE705980068006800030028A0
:100BC00009D4FFE70598006C20B1FFE70598016C98
:100BD0008847FFE708E00598806C20B1FFE705989B
:100BE000816C8847FFE7FFE716E00598006800681A
:100BF000C005002807D4FFE705980168086820F0C1
:100C000008000860FFE70598006C20B1FFE7059831
:100C1000016C8847FFE7FFE7FFE7FFE704980599C6
:100C2000C96DC8408006002840F18D80FFE7059817
:100C300000680068C006002840F18480FFE705983E
:100C4000C16D2020884001998860059890F8350092
:100C5000052834D1FFE705980168086820F01600E0
:100C6000086005980168486920F08000486105988F
:100C7000006C20B9FFE70598806C38B1FFE7059854
:100C80000168086820F008000860FFE70598C16D5A
:100C90003F208840019988600599012081F835003E
:100CA000FFE70599002081F83400FFE70598006D03
:100CB00020B1FFE70598016D8847FFE77BE00598C5
:100CC00000680068400300281AD5FFE7059800680F
:100CD00000680003002809D4FFE70598406C20B1A4
:100CE000FFE70598416C8847FFE708E00598C06B6F
:100CF00020B1FFE70598C16B8847FFE7FFE720E0D9
:100D0000059800680068C005002811D4FFE7059821
:100D10000168086820F0100008600599012081F83A
:100D20003500FFE70599002081F83400FFE7FFE771
:100D30000598C06B20B1FFE70598C16B8847FFE7B6
:100D4000FFE7FFE7FFE70598406DA0B3FFE70598D1
:100D5000406DC00730B3FFE70599052081F83500E5
:100D600005980168086820F001000860FFE7039813
:100D7000013003900299884201D9FFE707E0FFE7BD
:100D8000059800680068C0070028F0D1FFE70599C2
:100D9000012081F83500FFE70599002081F8340033
:100DA000FFE7FFE70598C06C20B1FFE70598C16C2D
:100DB0008847FFE7FFE706B080BD000080B586B03A
:100DC00004900020039000F007FB0290049820B9E3
:100DD000FFE701208DF81700A3E00498406A08B1EE
:100DE000FFE7FFE70499022081F83500FFE7049947
:100DF000002081F83400FFE704980168086820F0BB
:100E000001000860FFE7049800680068C00790B11F
:100E1000FFE700F0E1FA0299401A06280AD3FFE73B
:100E20000499202048650499032081F835008DF845
:100E3000170076E0E7E704980068006803900398DD
:100E400048F23F01CFF2100108400390049900914D
:100E50004868D1F808C0CB680A6940EA0C0018431A
:100E600010434A6910438A691043CA691043096AEA
:100E700001430398084303900498406A042808D16A
:100E8000FFE70499C86A096B01430398084303907C
:100E9000FFE70398049909680860049800684069AE
:100EA0000390039820F0070003900498416A039888
:100EB000084303900498406A04281AD1FFE7049875
:100EC000816A0398084303900498C06A80B1FFE7E1
:100ED0000498FFF71FFC50B1FFE7049940204865D4
:100EE0000499012081F835008DF8170019E0FFE71B
:100EF000FFE703980499096848610498FFF7DEFB4F
:100F000001900498C16D3F20884001998860049940
:100F100000204865049A012182F835108DF81700E9
:100F2000FFE79DF8170006B080BD000080B588B0CF
:100F3000069005910492039300208DF80B0006980B
:100F4000806D0190FFE7069890F83400012804D1E5
:100F5000FFE702208DF81F0045E00699012081F887
:100F60003400FFE7FFE7069890F8350001282BD101
:100F7000FFE70699022081F83500069900204865B0
:100F800006980599049A039BFFF73CFC0698C16DEF
:100F90003F2088400199886006980168086840F001
:100FA000160008600698006C38B1FFE706980168E3
:100FB000086840F008000860FFE7069801680868C4
:100FC00040F00100086009E0FFE70699002081F881
:100FD0003400FFE702208DF80B00FFE79DF80B00BF
:100FE0008DF81F00FFE79DF81F0008B080BD0000CE
:100FF0008EB00D900C9100200A90099008900B90F3
:10100000FFE70B980F2800F2CC81FFE70B99012036
:1010100088400A900C9800680A990840099009983D
:101020000A99884240F0B881FFE70C98406800F0C8
:101030000300012807D0FFE70C98406800F0030088
:1010400002282FD1FFE70D98806808900B98410087
:10105000032000FA01F10898884308900C98C068B2
:101060000B99490000FA01F1089808430890089884
:101070000D9988600D98406808900B99012000FA3E
:1010800001F10898884308900C984068C0F300105C
:101090000B9900FA01F108980843089008980D99F7
:1010A0004860FFE70C98406800F00300032818D060
:1010B000FFE70D98C06808900B984100032000FAE4
:1010C00001F10898884308900C9880680B994900B2
:1010D00000FA01F108980843089008980D99C86033
:1010E000FFE70C98406800F00300022826D1FFE7D4
:1010F0000D980B996FF0030202EA51010844006A4F
:1011000008900B9800F0070081000F2000FA01F111
:101110000898884308900C9800690B9901F0070122
:10112000890000FA01F108980843089008980D9981
:101130000B9B02EA530211440862FFE70D98006816
:1011400008900B984100032000FA01F108988843A9
:1011500008900C98406800F003000B99490000FAD1
:1011600001F108980843089008980D9908600C98B8
:1011700080798007002800F00E81FFE7FFE700205C
:10118000079043F64400C4F20200016841F4804134
:101190000160006800F4804007900798FFE70B9813
:1011A00020F0030043F60801C4F201014058089002
:1011B0000B9800F0030081000F2000FA01F108985D
:1011C000884308900D980021C4F20201884203D19F
:1011D000FFE7002006905EE00D9840F20041C4F267
:1011E0000201884203D1FFE70120059050E00D98ED
:1011F00040F60001C4F20201884203D1FFE7022059
:10120000049042E00D9840F60041C4F20201884289
:1012100003D1FFE70320039034E00D9841F2000171
:10122000C4F20201884203D1FFE70420029026E0C5
:101230000D9841F20041C4F20201884203D1FFE758
:101240000520019018E00D9841F60001C4F202015A
:10125000884203D1FFE7062000900AE00D9941F68D
:101260000042C4F202020820914208BF0720009009
:10127000FFE700980190FFE701980290FFE70298CE
:101280000390FFE703980490FFE704980590FFE7B9
:1012900005980690FFE70698C0B20B9901F003018C
:1012A000890000FA01F108980843089008980B9902
:1012B00021F0030143F60802C4F20102885043F60C
:1012C0000040C4F20100006808900999089888431A
:1012D00008900C988079C00728B1FFE70999089811
:1012E00008430890FFE7089843F60041C4F2010163
:1012F000086043F60440C4F20100006808900999B0
:101300000898884308900C9880798007002805D5B4
:10131000FFE70999089808430890FFE7089843F603
:101320000441C4F20101086043F60840C4F2010020
:101330000068089009990898884308900C9880796B
:10134000C006002805D5FFE70999089808430890CA
:10135000FFE7089843F60841C4F20101086043F62C
:101360000C40C4F20100006808900999089888436D
:1013700008900C9880798006002805D5FFE7099928
:10138000089808430890FFE7089843F60C41C4F218
:1013900001010860FFE7FFE7FFE70B9801300B90C2
:1013A0002FE60EB07047000082B00190ADF8021039
:1013B0008DF801209DF8010028B1FFE7BDF802007B
:1013C0000199886105E0BDF8020000040199886177
:1013D000FFE702B07047000045F66C70C2F20000F3
:1013E0000068704740F21C00C2F20000027845F627
:1013F0006C71C2F200010868104408607047000078
:1014000080B582B043F60041C4F20201086840F49E
:1014100000700860086840F480600860086840F464
:1014200080700860032000F08FF80020019000F029
:1014300005F800F03BF8019802B080BD80B582B09D
:10144000009040F20800C2F20000006840F21C0167
:10145000C2F200010A784FF47A71B1FBF2F1B0FBED
:10146000F1F000F0A9FD20B1FFE701208DF80700A1
:1014700018E000980F280DD8FFE700994FF0FF30D3
:10148000002200F047F8009840F22001C2F200016B
:10149000086003E001208DF8070003E000208DF8CC
:1014A0000700FFE79DF8070002B080BD80B582B05D
:1014B000FFE70020019043F64400C4F202000168F7
:1014C00041F480410160006800F48040019001987F
:1014D000FFE7FFE70020009043F64000C4F202005F
:1014E000016841F080510160006800F08050009078
:1014F0000098FFE7052000F027F802B080BD00004B
:1015000080B582B08DF807009DF9070002F0D0FC8D
:1015100002B080BD80B586B08DF8170004910392AB
:101520000020029002F0DCFC02909DF9170001906F
:1015300002980499039A01F08FFB0146019802F08A
:10154000D7FC06B080BD000080B582B00190019844
:1015500002F0F0FC02B080BD80B584B00290019131
:10156000029820B9FFE701208DF80F0021E10198D2
:1015700043F60041C4F20201096801F00701884204
:1015800012D9FFE7019943F60040C4F2020001704E
:10159000006800F007000199884204D0FFE70120AD
:1015A0008DF80F0005E1FFE702980078800700281A
:1015B0002AD5FFE7029800784007002809D5FFE701
:1015C00043F60801C4F20201086840F4E0500860E4
:1015D000FFE7029800780007002809D5FFE743F6E7
:1015E0000801C4F20201086840F460400860FFE7A7
:1015F00043F60801C4F20201086820F0F000029AE4
:10160000926810430860FFE702980078C00700283E
:101610006ED0FFE702984068012811D1FFE743F63A
:101620000000C4F20200006800F400310020B0EBBA
:10163000514F04D1FFE701208DF80F00B9E02CE0F5
:1016400002984068022805D0FFE702984068032806
:1016500011D1FFE743F60000C4F20200006800F079
:1016600000710020B0EB516F04D1FFE701208DF82D
:101670000F009EE010E043F60000C4F20200006894
:1016800000F002010020B0EB510F04D1FFE7012070
:101690008DF80F008DE0FFE7FFE743F60801C4F285
:1016A0000201086820F00300029A526810430860A3
:1016B000FFF792FE0090FFE743F60800C4F2020035
:1016C000006800F00C0002994968B0EB810F0ED061
:1016D000FFE7FFF781FE0099401A41F28931884205
:1016E00004D3FFE703208DF80F0062E0E4E7FFE793
:1016F000019843F60041C4F20201096801F00701B4
:10170000884212D2FFE7019943F60040C4F202007A
:101710000170006800F007000199884204D0FFE7DB
:1017200001208DF80F0044E0FFE7029800784007A1
:1017300000280CD5FFE743F60801C4F2020108684F
:1017400020F4E050029AD26810430860FFE7029844
:101750000078000700280DD5FFE743F60801C4F222
:101760000201086820F46040029A126940EAC2004F
:101770000860FFE700F04CF843F60801C4F20201EC
:101780000968C9B20A0944F27C71C0F60001895C9B
:10179000C84040F20801C2F20001086040F2200097
:1017A000C2F200000068FFF749FE00208DF80F002C
:1017B000FFE79DF80F0004B080BD000040F2080074
:1017C000C2F200000068704780B5FFF7F7FF43F6EC
:1017D0000801C4F202010968C1F3822244F28C714B
:1017E000C0F60001895CC84080BD000080B5FFF7ED
:1017F000E5FF43F60801C4F20201096889B24A0B09
:1018000044F28C71C0F60001895CC84080BD0000C4
:1018100080B586B00020059004900390029043F6B6
:101820000800C4F20200006800F00C0001460191BB
:1018300040B1FFE7019804280AD0FFE70198082883
:101840000CD04FE042F20040C0F2F40002904FE0B2
:1018500041F20020C0F27A00029049E043F6040011
:10186000C4F20200016801F03F01059100684002E6
:10187000002813D5FFE743F60400C4F20200006815
:10188000C0F3881041F20021C0F27A01A0FB0101EF
:10189000059A0023FEF794FC049012E043F604003E
:1018A000C4F202000068C0F3881042F20041C0F2A6
:1018B000F401A0FB0101059A0023FEF781FC0490CE
:1018C000FFE743F60400C4F20200006800F4403170
:1018D000022000EBD130039004980399B0FBF1F0A3
:1018E000029005E042F20040C0F2F4000290FFE7EF
:1018F000029806B080BD000080B586B004900498C0
:1019000020B9FFE701208DF8170050E30498007814
:10191000C007002800F0A580FFE743F60800C4F2E6
:101920000200006800F00C00042813D0FFE743F623
:101930000800C4F20200006800F00C0008281ED164
:10194000FFE743F60400C4F20200006840020028EA
:1019500015D5FFE743F60000C4F20200006800F46A
:1019600000310020B0EB514F08D0FFE704984068E9
:1019700020B9FFE701208DF8170018E370E0FFE7BA
:1019800004984068B0F5803F09D1FFE743F60001B5
:10199000C4F20201086840F48030086020E0049836
:1019A0004068B0F5A02F0DD1FFE743F60001C4F267
:1019B0000201086840F480200860086840F4803024
:1019C00008600CE043F60001C4F20201086820F44C
:1019D00080300860086820F480200860FFE7FFE797
:1019E000FFE704984068E8B1FFE7FFF7F5FC0390D4
:1019F000FFE743F60000C4F20200006800F4003183
:101A00000020B0EB514F0CD1FFE7FFF7E5FC039945
:101A1000401A652804D3FFE703208DF81700C6E2BB
:101A2000E7E71CE0FFF7D8FC0390FFE743F6000070
:101A3000C4F20200006800F400310020B0EB514F06
:101A40000CD0FFE7FFF7C8FC0399401A652804D3C0
:101A5000FFE703208DF81700A9E2E7E7FFE7FFE7BC
:101A6000FFE7049800788007002840F19680FFE7A0
:101A700043F60800C4F20200006810F00C0F13D007
:101A8000FFE743F60800C4F20200006800F00C0013
:101A900008282CD1FFE743F60400C4F202000068D6
:101AA0004002002823D4FFE743F60000C4F20200FE
:101AB000006800F002010020B0EB510F09D0FFE7F1
:101AC0000498C068012804D0FFE701208DF81700B2
:101AD0006DE243F60001C4F20201086820F0F8004C
:101AE000049A126940EAC2000860FFE754E00498D3
:101AF000C06870B3FFE70021C4F2472101200860ED
:101B0000FFF76AFC0390FFE743F60000C4F202000F
:101B1000006800F002010020B0EB510F0CD1FFE78C
:101B2000FFF75AFC0399401A032804D3FFE7032068
:101B30008DF817003BE2E7E743F60001C4F202012B
:101B4000086820F0F800049A126940EAC2000860B0
:101B500021E00021C4F2472100200860FFF73CFC8F
:101B60000390FFE743F60000C4F20200006800F0B3
:101B700002010020B0EB510F0CD0FFE7FFF72CFC67
:101B80000399401A032804D3FFE703208DF81700B8
:101B90000DE2E7E7FFE7FFE7FFE7049800780007BB
:101BA00000284BD5FFE70498406918B3FFE740F6DB
:101BB0008061C4F2472101200860FFF70DFC03900B
:101BC000FFE743F67400C4F20200006800F002016F
:101BD0000020B0EB510F0CD1FFE7FFF7FDFB03999D
:101BE000401A032804D3FFE703208DF81700DEE135
:101BF000E7E722E040F68061C4F247210020086058
:101C0000FFF7EAFB0390FFE743F67400C4F202001B
:101C1000006800F002010020B0EB510F0CD0FFE78C
:101C2000FFF7DAFB0399401A032804D3FFE70320E8
:101C30008DF81700BBE1E7E7FFE7FFE704980078BE
:101C40004007002840F1CE80FFE700208DF8070014
:101C500043F64000C4F202000068C000002815D41A
:101C6000FFE7FFE70020009043F64000C4F20200C7
:101C7000016841F080510160006800F080500090E0
:101C80000098FFE701208DF80700FFE747F200000A
:101C9000C4F200000068C005002822D4FFE747F224
:101CA0000001C4F20001086840F480700860FFF78A
:101CB00093FB0390FFE747F20000C4F200000068C6
:101CC000C00500280CD4FFE7FFF786FB0399401AF4
:101CD000032804D3FFE703208DF8170067E1EAE744
:101CE000FFE7FFE704988068012809D1FFE743F682
:101CF0007001C4F20201086840F0010008601FE0B2
:101D00000498806805280DD1FFE743F67001C4F2FE
:101D10000201086840F004000860086840F0010013
:101D200008600CE043F67001C4F20201086820F07C
:101D300001000860086820F004000860FFE7FFE782
:101D4000FFE704988068F8B1FFE7FFF745FB0390D1
:101D5000FFE743F67000C4F20200006800F00201E1
:101D60000020B0EB510F0ED1FFE7FFF735FB0399D1
:101D7000401A41F28931884204D3FFE703208DF8ED
:101D8000170014E1E5E71EE0FFF726FB0390FFE7ED
:101D900043F67000C4F20200006800F00201002067
:101DA000B0EB510F0ED0FFE7FFF716FB0399401A77
:101DB00041F28931884204D3FFE703208DF81700F0
:101DC000F5E0E5E7FFE79DF80700012809D1FFE707
:101DD00043F64001C4F20201086820F08050086018
:101DE000FFE7FFE704988069002800F0DC80FFE748
:101DF00043F60800C4F20200006800F00C00082856
:101E000000F08580FFE70498806902285CD1FFE735
:101E10006021C4F2472100200860FFF7DDFA03903B
:101E2000FFE743F60000C4F20200006800F0007112
:101E30000020B0EB516F0CD0FFE7FFF7CDFA03990C
:101E4000401A032804D3FFE703208DF81700AEE003
:101E5000E7E70499C869D1F820C04B6A8A6A40EA6A
:101E60000C0040EA8310D2034FF6FF739A43A2F5A9
:101E700080321043C96A40EA016043F60401C4F2AB
:101E8000020108606021C4F2472101200860FFF7C9
:101E9000A3FA0390FFE743F60000C4F202000068D3
:101EA00000F000710020B0EB516F0CD1FFE7FFF79D
:101EB00093FA0399401A032804D3FFE703208DF80F
:101EC000170074E0E7E721E06021C4F24721002019
:101ED0000860FFF781FA0390FFE743F60000C4F2C1
:101EE0000200006800F000710020B0EB516F0CD0D0
:101EF000FFE7FFF771FA0399401A032804D3FFE7BD
:101F000003208DF8170052E0E7E7FFE74AE0049866
:101F10008069012804D1FFE701208DF8170046E011
:101F200043F60400C4F2020000680290049880693D
:101F3000012831D0FFE7029800F480000499C969B4
:101F4000884229D1FFE7029800F03F000499096A0E
:101F5000884221D1FFE7029847F6C07108400499F2
:101F6000496AB0EB811F17D1FFE7029800F44030B7
:101F70000499896AC9034FF6FF729143A1F5803134
:101F8000884209D1FFE7029800F070600499C96A9D
:101F9000B0EB016F04D0FFE701208DF8170006E0D9
:101FA000FFE7FFE7FFE700208DF81700FFE79DF848
:101FB000170006B080BD000080B582B00190019886
:101FC00000F084FE02B080BD85B003900291FFE76F
:101FD000039890F83C00012804D1FFE702208DF817
:101FE00013007EE00399012081F83C00FFE7FFE742
:101FF0000399022081F83D00039800684068019031
:102000000398006880680090019820F070000190AB
:1020100002980168019808430190019803990968A2
:102020004860039800680021C4F2010188423CD056
:10203000FFE703980068B0F1804F36D0FFE70398C0
:10204000006840F20041C4F2000188422DD0FFE751
:102050000398006840F60001C4F20001884224D0D1
:10206000FFE70398006840F60041C4F2000188428F
:102070001BD0FFE70398006840F20041C4F2010161
:10208000884212D0FFE70398006844F20001C4F2CE
:102090000101884209D0FFE70398006841F600017A
:1020A000C4F2000188420ED1FFE7009820F08000C2
:1020B00000900298416800980843009000980399A6
:1020C00009688860FFE70399012081F83D00FFE778
:1020D0000399002081F83C00FFE700208DF81300F1
:1020E000FFE79DF8130005B07047000080B582B08F
:1020F0000090009820B9FFE701208DF807003FE02D
:10210000009890F83D0040B9FFE70099002081F861
:102110003C00009800F038F8FFE70099022081F8B1
:102120003D00009951F8040B01F086FA0099012056
:1021300081F84600FFE70099012081F83E000099F0
:1021400081F83F00009981F84000009981F8410032
:10215000FFE7FFE70099012081F84200009981F82C
:102160004300009981F84400009981F84500FFE799
:102170000099012081F83D0000208DF80700FFE75D
:102180009DF8070002B080BD80B586B00590059827
:10219000006840F20041C4F2000188421BD1FFE711
:1021A000FFE70020049043F64000C4F202000168FB
:1021B00041F002010160006800F002000490049800
:1021C000FFE71D20029001210022FFF7A3F90298EA
:1021D000FFF796F924E00598006841F20001C4F287
:1021E000000188421BD1FFE73620019001F048FE34
:1021F000019801210022FFF78DF9FFE700200390ED
:1022000043F64000C4F20200016841F01001016091
:10221000006800F0100003900398FFE7FFE7FFE776
:1022200006B080BD83B00190019890F83D00012870
:1022300004D0FFE701208DF80B006AE0019902202D
:1022400081F83D0001980168C86840F00100C8604D
:10225000019800680021C4F2010188423CD0FFE7E8
:1022600001980068B0F1804F36D0FFE70198006810
:1022700040F20041C4F2000188422DD0FFE70198EE
:10228000006840F60001C4F20001884224D0FFE754
:102290000198006840F60041C4F2000188421BD05A
:1022A000FFE70198006840F20041C4F20101884252
:1022B00012D0FFE70198006844F20001C4F2010166
:1022C000884209D0FFE70198006841F60001C4F296
:1022D0000001884212D1FFE701980068806800F091
:1022E000070000900098062807D0FFE701980168D2
:1022F000086840F001000860FFE706E00198016807
:10230000086840F001000860FFE700208DF80B002E
:10231000FFE79DF80B0003B07047000080B586B062
:102320000490039100208DF80B00FFE7049890F8CB
:102330003C00012804D1FFE702208DF81700ABE034
:102340000499012081F83C00FFE7FFE7049902208F
:1023500081F83D000498006880680190019820F0A1
:1023600077000190019820F47F4001900198049932
:1023700009688860039800680090002872D0FFE721
:10238000009810286ED0FFE7009820286AD0FFE759
:102390000098302866D0FFE70098402855D0FFE726
:1023A0000098502837D0FFE70098602840D0FFE71A
:1023B000009870280BD0FFE70098B0F5805F05D03B
:1023C000FFE70098B0F5005F16D052E055E00498A2
:1023D0000068039B5A689968DB6801F0FBF9049870
:1023E000006880680190019840F0770001900198A2
:1023F00004990968886040E004980068039B5A6863
:102400009968DB6801F0E6F904980168886840F48F
:102410008040886031E004980068039A5168D2686F
:1024200001F008FA04980068502101F0EDF924E069
:1024300004980068039A5168D26801F023FA04985E
:102440000068602101F0E0F917E004980068039A41
:102450005168D26801F0EEF904980068402101F05B
:10246000D3F90AE0049800680399096801F0CCF9EF
:1024700003E001208DF80B00FFE70499012081F8AB
:102480003D00FFE70499002081F83C00FFE79DF83C
:102490000B008DF81700FFE79DF8170006B080BD10
:1024A00082B00190ADF8021002B0704781B0009088
:1024B00001B0704780B582B00090009820B9FFE766
:1024C00001208DF807003EE00098806908B1FFE721
:1024D00000E0FFE7009890F83D0040B9FFE7009961
:1024E000002081F83C00009800F032F8FFE70099E6
:1024F000242081F83D0000980168C86820F400504D
:10250000C860009801F066FB00980168086920F433
:102510009040086100980168486920F02A004861ED
:1025200000980168C86840F40050C8600099002015
:102530000864009A202182F83D10009A82F83E102B
:102540008DF80700FFE79DF8070002B080BD00008E
:1025500080B590B00F9000200E900D900C900B90D5
:102560000A900F98006841F20001C4F2010188420C
:1025700060D1FFE7FFE70020099043F64400C4F272
:102580000200016841F010010160006800F01000D5
:1025900009900998FFE7FFE70020089043F6300014
:1025A000C4F20200016841F001010160006800F01E
:1025B000010008900898FFE74FF4C0600A900220DD
:1025C0000B90002004900C9003200D9007200E909B
:1025D0000020C4F202000AA9FEF70AFD049945F69C
:1025E0005850C2F20000059046F24042C4F2020286
:1025F00002604FF0006242608160C1600161416130
:1026000081614FF48072C2614FF4403202624162D4
:10261000FEF7D4FB18B1FFE7FEF738FAFFE7FFE754
:102620000F9845F65851C2F2000181630F988863F4
:10263000FFE779E00F98006844F20041C4F200011E
:10264000884270D1FFE7FFE70020079043F6400083
:10265000C4F20200016841F400310160006800F436
:10266000003007900798FFE7FFE70020069043F649
:102670003000C4F20200016841F00101016000680D
:1026800000F0010006900698FFE70C200A90022057
:102690000B90002002900C9003200D9007200E90CC
:1026A0000020C4F202000AA9FEF7A2FC029945F636
:1026B000B850C2F20000039046F2A002C4F2020237
:1026C00002604FF00062426040228260C1604FF4BD
:1026D0008062026141618161C16101624162FEF714
:1026E0006DFB18B1FFE7FEF7D1F9FFE7FFE70F98A1
:1026F00045F6B851C2F2000141630F988863FFE7C5
:102700002620019001210222FEF704FF0198FEF726
:10271000F7FE45F6EC60C2F200000168C86840F0C0
:102720002000C860FFE7FFE710B080BD80B584B02F
:1027300002900191ADF80220029890F83E00202806
:1027400028D1FFE7019820B1FFE7BDF8020020B9CA
:10275000FFE701208DF80F0020E0FFE7029890F8D6
:102760003C00012804D1FFE702208DF80F0015E09E
:102770000299012081F83C00FFE7FFE70299002061
:10278000086302980199BDF8022001F0C1FA8DF8A2
:102790000F0003E002208DF80F00FFE79DF80F0007
:1027A00004B080BD81B0009001B0704781B000904E
:1027B00001B0704780B586B004900391ADF80A204F
:1027C000049890F83D00202874D1FFE7039820B1C9
:1027D000FFE7BDF80A0020B9FFE701208DF81700D8
:1027E0006CE0FFE7049890F83C00012804D1FFE773
:1027F00002208DF8170061E00499012081F83C0067
:10280000FFE7FFE7039804990862BDF80A000499FE
:102810008884BDF80A000499C884049900200864DB
:10282000049A212182F83D1004994A6B43F67521E0
:10283000C0F60001D16304994A6B43F6F121C0F65A
:102840000001116404994A6B43F6D901C0F60001F6
:10285000D1640499496B086503A801900498026843
:10286000406B019909680432BDF80A30FEF75EFB3F
:10287000049801686FF040000860FFE704990020A9
:1028800081F83C00FFE7FFE7FFE70498006850E8A5
:10289000050F40F080000090FFE70099049802685F
:1028A00042E805100028F0D1FFE7FFE700208DF88F
:1028B000170003E002208DF81700FFE79DF81700CE
:1028C00006B080BD81B0009001B0704781B000902B
:1028D00001B07047FFE7FEE780B586B0FFE7002054
:1028E000059043F63000C4F20200016841F4001183
:1028F0000160006800F4001005900598FFE7FFE70D
:102900000020049043F63000C4F20200016841F454
:1029100080010160006800F4800004900498FFE7E3
:1029200011200190002202921146FEF7F3FD01985A
:10293000FEF7E6FD029A3A2003901146FEF7EAFD03
:102940000398FEF7DDFD06B080BD000080B594B0B1
:10295000002013901290119010900F90FFE700202C
:102960000E9043F63000C4F20200016841F080018D
:102970000160006800F080000E900E98FFE7FFE70E
:1029800000200D9043F63000C4F20200016841F0CF
:1029900001010160006800F001000D900D98FFE753
:1029A000FFE700200C9043F63000C4F202000168FB
:1029B00041F010010160006800F010000C900C98CC
:1029C000FFE7FFE700200B9043F63000C4F202005F
:1029D000016841F004010160006800F004000B9000
:1029E0000B98FFE7FFE700200A9043F63000C4F29F
:1029F0000200016841F008010160006800F0080071
:102A00000A900A98FFE741F20000C4F20200019028
:102A10004FF4C05100220592FEF7C6FC059A40F61D
:102A20000000C4F2020002904FF480710391FEF79F
:102A3000BBFC059A40F60040C4F2020007906C21EE
:102A40000991FEF7B1FC019805994FF400620F92CD
:102A500001220492109211910321069112910FA963
:102A60000891FEF7C5FA0198049B059A08994FF45E
:102A7000805CCDF83CC0109311921292FEF7B8FA28
:102A80000298DDF810C0059B069A0899DDF80CE065
:102A9000CDF83CE0CDF840C011931292FEF7A8FAB1
:102AA000DDF80CC00498059B069A0899CDF83CC047
:102AB0004FF0020CCDF840C01193129213900020F9
:102AC000C4F20200FEF794FADDF810C0059B069AE6
:102AD00007980899DDF824E0CDF83CE0CDF840C037
:102AE00011931292FEF784FA14B080BD80B588B0BD
:102AF00000210191079106910591049103910291A2
:102B000045F61860C2F2000040F20042C4F2000232
:102B1000026040F28F62426081600922C2600161FE
:102B20008161FFF7E3FA18B1FFE7FDF7AFFFFFE7B9
:102B30004FF48050049045F61860C2F2000004A9DA
:102B4000FFF7ECFB18B1FFE7FDF7A0FFFFE7002060
:102B50000290039045F61860C2F2000002A9FFF748
:102B600033FA18B1FFE7FDF791FFFFE708B080BD2A
:102B700080B582B000210191009145F66060C2F2FB
:102B8000000041F20002C4F20002026053224260DF
:102B90008160C722C2608161FFF7A8FA18B1FFE720
:102BA000FDF774FFFFE700200090019045F660609C
:102BB000C2F200006946FFF707FA18B1FFE7FDF718
:102BC00065FFFFE702B080BD80B582B045F6A86022
:102BD000C2F20000019041F20001C4F20101016063
:102BE00048F28041C0F21E01416000218160C16055
:102BF0000161042242618161C161FFF75BFC18B190
:102C0000FFE7FDF743FFFFE702B080BD80B582B06C
:102C100045F6EC60C2F20000019044F20041C4F2BB
:102C20000001016040F2F461C0F214014160002132
:102C30008160C16001610C2242618161C161FFF765
:102C400039FC18B1FFE7FDF721FFFFE702B080BDB7
:102C5000FFE7FEE7FFE7FEE788B0079006910592E1
:102C6000079800F0070004900498C0F107000528B9
:102C700003D3FFE70420019004E00498C0F10700AB
:102C80000190FFE70198039004980430062803D8C8
:102C9000FFE70020009003E0049803380090FFE76E
:102CA0000098029006980399012202FA01F1013975
:102CB0000840029B984005999A40013A1140084308
:102CC00008B07047704700007047000080B582B0C0
:102CD000009000980138B0F1807F03D3FFE7012016
:102CE000019019E0009801384EF21401CEF2000173
:102CF00008604FF0FF300F2101F0FAF84EF2180192
:102D0000CEF20001002008604EF21002CEF2000266
:102D1000072111600190FFE7019802B080BD00001B
:102D200080B5FEF75FFB80BD80B594B008A8302168
:102D3000FDF790FA0020079006900590049003900C
:102D4000FFE70020029043F64000C4F20200016851
:102D500041F080510160006800F0805002900298BC
:102D6000FFE7FFE70020019047F20000C4F20000F7
:102D7000016841F480410160006800F480400190E6
:102D80000198FFE7012008904FF48030099002215C
:102D90000E914FF480000F9004201090A822119201
:102DA0001291139008A8FEF7A7FD18B1FFE7FDF7F1
:102DB0006DFEFFE70F200390022004900020059095
:102DC0004FF4A05006904FF48050079003A80521BF
:102DD000FEF7C2FB18B1FFE7FDF758FEFFE714B09E
:102DE00080BD00004EF68851CEF20001086840F424
:102DF000700008607047000043F64401C4F202010D
:102E0000086840F0010008601821C4F20101086858
:102E100020F003000860086840F07000086020217E
:102E2000C4F20101086840F0030008600421C4F204
:102E30000101086840F0400008600821C4F2010167
:102E4000086840F030000860086840F0050008603D
:102E50000C21C4F20101086840F4007008604421AC
:102E6000C4F20101086840F4004008603421C4F253
:102E70000101002008601421C4F201010120086052
:102E80000021C4F20101086840F0010008607047A9
:102E900080B58AB040F61801C4F202014FF4807088
:102EA000086040F21041C4F200016FF001000860B8
:102EB00045F64050C2F200000990008800EE100A6A
:102EC000B8EEC00A10EE100AFDF7C1FA41EC100B83
:102ED00051EC100B9FED800B53EC102B04930392DD
:102EE000FDF7C3F941EC100B8DED000B40F20C0027
:102EF000C2F2000008900088FDF798FA9DED001BD3
:102F000041EC100B51EC110B53EC102BFDF71FFA99
:102F100041EC100B51EC100BFDF7ACFA00EE100A6F
:102F200001F080FA09989FED6E1A20EE010ABDEEBD
:102F3000C00A45F63C71C2F2000181ED000A00882A
:102F400000EE100AB8EEC00A10EE100AFDF77FFA84
:102F5000039A049B41EC100B51EC100BFDF785F923
:102F60000246089805920A46059942EC101B8DED21
:102F7000060B0088FDF75AFA9DED061B41EC100B7D
:102F800051EC110B53EC102BFDF7E1F941EC100B58
:102F900051EC100BFDF76EFA00EE100A01F042FA48
:102FA0000899099A9FED4F1A20EE010ABDEEC00A5A
:102FB00045F64070C2F2000080ED000A10880B88D0
:102FC000B0FBF3FC45F65470C2F200000388634482
:102FD000038040F20E03C2F20003B3F800E0B2F83F
:102FE00000C0F444A2F800C009881B880B44B2F862
:102FF00000C0BCFBF3F101FB13C11180008840F25B
:103000001A01C2F200010988B0FBF1F0002858D083
:10301000FFE745F65471C2F200010020088040F23B
:103020001402C2F2000210884CF6CD43CCF6CC4319
:10303000A0FB0310000900EB800C40F21A01C2F261
:10304000000108886044088040F21000C2F20000CD
:103050000188013101801188A1FB03C31B0903EB27
:103060008303A1EB83011180118801311180018854
:1030700040F20E02C2F200021180028842F2107188
:10308000B1FBF2F101FB022140F20C02C2F200029C
:10309000118000884BF24941CEF2C261A0FB0102CF
:1030A00040F20040C4F20000016821EA9211016080
:1030B000006800F0010040F22C01C2F2000108702B
:1030C000FFE740F61801C4F202014FF0807008607B
:1030D0000AB080BD00BF00BF1E264454FB2119402A
:1030E000000016440000FA473421C4F20101002018
:1030F000086040F63401C4F2000108602421C4F2E3
:103100000101086040F62401C4F20001086040F6A5
:103110001001C4F20001086040F21801C2F200017F
:10312000012008707047000080B582B043F640016E
:10313000C4F20201086840F00400086040F604018F
:10314000C4F20001086840F04000086040F6080141
:10315000C4F20001086840F00700086040F618015A
:10316000C4F20001086840F06000086040F62001E9
:10317000C4F20001086840F00100086040F6340124
:10318000C4F2000100200190086040F62C01C4F256
:103190000001086040F61402C4F20002012111602F
:1031A00040F61001C4F20001086040F60C01C4F2C0
:1031B0000001086840F0020008601E20009000F046
:1031C0005FFE0098019A1146FEF7A4F940F600014F
:1031D000C4F20001086840F00100086002B080BD40
:1031E000B0B540F61841C4F202014020086041F237
:1031F0001001C4F200016FF00100086040F22C00E1
:10320000C2F200000078002800F00E82FFE745F6C9
:103210003C70C2F20000006845F64871C2F200013D
:103220000968411A45F64850C2F200000160006882
:10323000012852DBFFE745F64850C2F20000006863
:10324000411C48F2403090FBF1F045F63451C2F297
:1032500000010880FFE740F21800C2F20000007889
:1032600008B9FFE7F7E740F21801C2F200010020B9
:10327000087044F29C70C0F60000406841F21801EA
:10328000C4F20201086045F64850C2F2000001682D
:1032900040F63402C4F200021160016801EB410102
:1032A00040F62C02C4F20002116045F63451C2F21D
:1032B00000010A8852083423C4F201031A60098805
:1032C0002C22C4F201021160026845F66871C2F254
:1032D000000108681044086064E045F64850C2F2F6
:1032E00000000068B0F1FF3F54DCFFE745F64850AE
:1032F000C2F20000016849420160016848F24030B2
:1033000090FBF1F045F63451C2F200010880FFE76E
:1033100040F21800C2F20000007808B9FFE7F7E7B2
:1033200040F21801C2F200010020087044F29C70C3
:10333000C0F60000006841F21801C4F20201086002
:1033400045F64850C2F20000016840F63402C4F26B
:1033500000021160016801EB410140F62C02C4F249
:103360000002116045F63451C2F200010A88520889
:103370003423C4F201031A6009882C22C4F201022A
:103380001160026845F66871C2F2000108681044D5
:10339000086006E045F63451C2F2000100200880C2
:1033A000FFE7FFE740F21000C2F20000018840F2A0
:1033B0001200C2F200000180008840F21601C2F241
:1033C00000010988884200F08980FFE745F64C50EB
:1033D000C2F2000000884BF65002C0F21E5245F6C1
:1033E0002941CCF28F2100FB01204FEAF0004AF680
:1033F0001561C0F24711884270D3FFE740F2160012
:10340000C2F20000018845F65452C2F2000212884E
:1034100002EB420344F65262C2F2000222F8131099
:10342000008818B9FFE7FDF731FBFFE745F64C5080
:10343000C2F200000388B0F800E048F21F51C5F264
:10344000EB11AEFB01C24FEA921CC8220CFB02FC3E
:10345000ACEB0E0C634445F6545CC2F2000CBCF8B5
:1034600000E00EEB4E0444F6526EC2F2000E0EEB7C
:10347000440463800488A4FB01539B0903FB1243AB
:10348000BCF8004004EB44040EEB440EAEF80430EC
:1034900045F6647EC2F2000EDEF800300133CEF84D
:1034A0000030BCF800300133ACF800300388A3FBD7
:1034B00001C189094A430188D21A1144C8310180E7
:1034C000008841F28831884207DBFFE745F64C511E
:1034D000C2F2000100200880FFE7FFE740F212007F
:1034E000C2F20000008840F21601C2F2000108801A
:1034F00045F64070C2F20000006845F64C51C2F239
:1035000000010B8840F23002C2F2000242F82300B0
:1035100045F63470C2F2000000680B8802EB8302AB
:10352000506008880230088045F65450C2F200000E
:103530000088B0F5FA7F0EDBFFE745F65451C2F282
:1035400000010020088045F65051C2F200010868D1
:1035500001300860FFE745F64C50C2F200000088D9
:103560004BF65002C0F21E5245F62941CCF28F2193
:1035700000FB01204FEAF0004AF61461C0F2471147
:1035800088423FD8FFE740F21200C2F200000188F3
:1035900045F65452C2F20002128802EB420344F68E
:1035A0005262C2F2000222F81310008818B9FFE735
:1035B000FDF76CFAFFE745F64C50C2F200000088B8
:1035C000A0F1C80245F65451C2F20001088800EB90
:1035D000400344F65260C2F2000000EB43035A80FD
:1035E0000A8802EB420200EB4202C8209080088861
:1035F0000130088045F66471C2F2000108680130AC
:103600000860FFE745F64C50C2F20000008841F226
:103610008831884207DBFFE745F64C51C2F20001D2
:1036200000200880FFE7FFE740F61841C4F20201DE
:103630004FF480000860B0BD83B002900191029801
:103640000068009002980021C4F20101884225D050
:10365000FFE70298B0F1804F20D0FFE7029840F2D8
:103660000041C4F20001884218D0FFE7029840F6FA
:103670000001C4F20001884210D0FFE7029840F632
:103680000041C4F20001884208D0FFE7029840F2EE
:103690000041C4F2010188420AD1FFE7009820F0FE
:1036A0007000009001984168009808430090FFE77F
:1036B00002980021C4F20101884255D0FFE7029828
:1036C000B0F1804F50D0FFE7029840F20041C4F2C1
:1036D0000001884248D0FFE7029840F60001C4F29A
:1036E0000001884240D0FFE7029840F60041C4F252
:1036F0000001884238D0FFE7029840F20041C4F24E
:103700000101884230D0FFE7029844F20001C4F280
:103710000101884228D0FFE7029844F20041C4F238
:103720000101884220D0FFE7029844F60001C4F26C
:103730000101884218D0FFE7029841F60001C4F267
:103740000001884210D0FFE7029841F60041C4F220
:103750000001884208D0FFE7029842F20001C4F25B
:10376000000188420AD1FFE7009820F440700090E1
:103770000198C168009808430090FFE7009820F086
:1037800080000199496908430090009802990860F7
:10379000019880680299C86201980068029988625D
:1037A00002980021C4F20101884208D0FFE7029884
:1037B00040F20041C4F20101884205D1FFE70198BF
:1037C000006902990863FFE702990120486103B08C
:1037D0007047000085B00490039102920193049811
:1037E00080680090009820F47F4000900398029930
:1037F000019A41EA02210143009808430090009891
:103800000499886005B0704783B0029001910298D6
:1038100080680090009820F0700000900198009956
:10382000084340F00700009000980299886003B0B8
:103830007047000085B00490039102920498006ADA
:1038400000900499086A20F00100086204988069D9
:103850000190019820F0F00001900299019840EA4F
:1038600001100190009820F00A0000900399009840
:1038700008430090019804998861009804990862AF
:1038800005B0704785B00490039102920499086ACC
:1038900020F0100008620498806901900498006A82
:1038A0000090019820F4704001900299019840EA3C
:1038B00001300190009820F0A0000090039900983A
:1038C00040EA0110009001980499886100980499D9
:1038D000086205B07047000080B584B003900020F6
:1038E00002900398806B0190019800684069C0B213
:1038F000C0090290019890F83D0021280AD1FFE705
:10390000029838B1FFE701990020C884019800F0BF
:1039100045F9FFE7019800684069C0F38010029004
:10392000019890F83E0022280AD1FFE7029838B1AA
:10393000FFE701990020C885019800F0E5F8FFE74E
:103940000199086C40F0100008640198FEF7AEFD84
:1039500004B080BD80B586B005900598806B04905A
:10396000059800680068C00500285AD4FFE704994C
:103970000020C885FFE7FFE70498006850E8030FC0
:1039800020F480700390FFE703990498026842E8EE
:1039900003100028F0D1FFE7FFE7FFE7FFE70498F7
:1039A000006850E8050F20F001000290FFE702993F
:1039B0000498026842E805100028F0D1FFE7FFE70D
:1039C000FFE7FFE70498006850E8050F20F040008B
:1039D0000190FFE701990498026842E80510002869
:1039E000F0D1FFE7FFE70499202081F83E0004981A
:1039F000006B012814D1FFE7FFE7FFE70498006898
:103A000050E8030F20F010000090FFE700990498A1
:103A1000026842E803100028F0D1FFE7FFE7FFE764
:103A2000FFE70498006B012805D1FFE70498818D1A
:103A3000FEF736FD03E00498FEF7B4FEFFE706B09C
:103A400080BD000080B582B001900198806B00902D
:103A50000098006B012806D1FFE70098818D490886
:103A6000FEF71EFD03E00098FEF7A0FEFFE702B0A0
:103A700080BD000080B584B003900398806B0290F5
:103A8000039800680068C00500282AD4FFE702995F
:103A90000020C884FFE7FFE70298006850E8050FA0
:103AA00020F080000190FFE701990298026842E847
:103AB00005100028F0D1FFE7FFE7FFE7FFE70298D6
:103AC000006850E8030F40F040000090FFE70099C5
:103AD0000298026842E803100028F0D1FFE7FFE7F0
:103AE00003E00298FEF7EEFEFFE704B080BD0000A1
:103AF00080B582B001900198806B00900098FEF72D
:103B0000E5FE02B080BD000084B00390FFE7FFE750
:103B10000398006850E8030F20F490700290FFE7CC
:103B200002990398026842E803100028F0D1FFE7E9
:103B3000FFE7FFE7FFE70398006850E8050F20F074
:103B400001000190FFE701990398026842E805101F
:103B50000028F0D1FFE7FFE70398006B012814D19C
:103B6000FFE7FFE7FFE70398006850E8030F20F046
:103B700010000090FFE700990398026842E80310E4
:103B80000028F0D1FFE7FFE7FFE70399202081F845
:103B90003E0003990020086304B0704782B0019092
:103BA000FFE7FFE70198006850E8030F20F0C0002E
:103BB0000090FFE700990198026842E8031000288E
:103BC000F0D1FFE7FFE70199202081F83D0002B026
:103BD0007047000080B586B00590059800680069C0
:103BE00020F44050059A1168D26810430861059985
:103BF00088680B694A69C9691843104308430490EF
:103C000005980068C06849F20C618843049908432C
:103C100005990968C86005980068406920F44070FB
:103C2000059A11689269104348610598006841F24D
:103C30000001C4F20101884209D0FFE7059800683D
:103C400041F20041C4F20101884204D1FFE7FDF7CF
:103C5000CDFD039003E0FDF7B7FD0390FFE7059866
:103C6000C069B0F5004F29D1FFE703981921A0FBE7
:103C70000101059A1368029353685A00DB0FFCF7A1
:103C80009FFA0299864648F21F53C5F2EB13AEFB2A
:103C90000320420910014FF0640C02FB1CEC32229D
:103CA00002EBCC02A2FB0332F82303EA521300EB2F
:103CB0004300C2F342121044886026E003981921A1
:103CC000A0FB0101059A1368019353689A009B0FAA
:103CD000FCF776FA0199844648F21F52C5F2EB12BE
:103CE000ACFB02304309642003FB10CC322000EB14
:103CF0000C10A0FB0202F02000EA521000EB0310AF
:103D0000C2F3431210448860FFE706B080BD000094
:103D100080B588B007900691ADF8162006980799EF
:103D20008862BDF816000799888507990020086405
:103D3000079A222182F83E1007998A6B43F65511A3
:103D4000C0F60001D16307998A6B43F64521C0F69E
:103D50000001116407998A6B43F6D901C0F600018E
:103D6000D1640799896B086506A8049007980168D3
:103D7000806B0431049A1268BDF81630FDF7D6F84E
:103D8000FFE70020039007980068006803900798F9
:103D90000068406803900398FFE7FFE70799002059
:103DA00081F83C00FFE7FFE7FFE70798006850E86D
:103DB000030F40F480700290FFE7029907980268B1
:103DC00042E803100028F0D1FFE7FFE7FFE7FFE735
:103DD0000798006850E8050F40F001000190FFE7E8
:103DE00001990798026842E805100028F0D1FFE722
:103DF000FFE7FFE7FFE70798006850E8050F40F08E
:103E000040000090FFE700990798026842E805101B
:103E10000028F0D1FFE7FFE7002008B080BD0000D8
:103E200044F20040C4F2000000688006002811D56A
:103E3000FFE744F20440C4F20000006844F6506119
:103E4000C2F20001087045F60A21C2F20001012009
:103E5000087012E044F20040C4F20000006840061E
:103E6000002809D5FFE744F20041C4F200010868C8
:103E700020F040000860FFE7FFE77047FFE7FEE73C
:103E800081B08DF803009DF9030000280ED4FFE7F0
:103E90009DF9031001F01F02012090404A094EF2E3
:103EA0000011CEF2000141F82200FFE701B0704797
:103EB00081B08DF803009DF9030000280ED4FFE7C0
:103EC0009DF9031001F01F02012090404A094EF2B3
:103ED0000011CEF2000141F82200FFE701B0704767
:103EE0004EF60C50CEF200000068C0F3022070477E
:103EF00082B08DF8070000919DF9070000280AD4D0
:103F0000FFE7009800019DF907104EF20042CEF243
:103F1000000288540BE0009800019DF8071001F0A2
:103F20000F014EF61452CEF200028854FFE702B0A1
:103F30007047000083B00290029800F007000090E4
:103F40004EF60C51CEF200010868019001984FF630
:103F5000FF02104001900198009A40EA02200022DE
:103F6000C0F2FA52104301900198086003B0704704
:103F700084B00390ADF80A104FF6FF70ADF808005A
:103F8000FFE7BDF80A00411EADF80A1088B3FFE74D
:103F90000398411C03910178BDF8080080EA0120D4
:103FA000ADF8080000208DF80700FFE79DF8070036
:103FB00007281DDCFFE7BDF808000004002808D52D
:103FC000FFE7BDF8081041F2210080EA41000090AF
:103FD00004E0BDF8080040000090FFE70098ADF84D
:103FE0000800FFE79DF8070001308DF80700DDE7C6
:103FF000C7E7BDF8080004B07047000080B58AB07C
:104000000020089009904EF6FC51CEF2000108689D
:1040100040F08070086041F20001CEF200010868B3
:1040200040F001000860FDF7EBF9FEF77DFEFEF7BA
:104030008DFCFEF75BFDFEF74FFCFEF7C5FDFEF7BE
:1040400097FDFEF7E3FD40F22801C2F2000140F6C1
:104050005900C0F60000086045F6A860C2F20000F2
:1040600045F65971C2F200010122FEF75FFBFEF72F
:10407000C3FEFFF759F8089845F65C71C2F20001DB
:104080000870FFE745F65450C2F20000008845F67C
:104090005651C2F200010988884200F07A81FFE798
:1040A000FFE745F6EC60C2F2000090F83D002028E2
:1040B00001D0FFE7F5E745F65652C2F2000207923B
:1040C000108800EB400044F65261C2F2000131F862
:1040D000103045F64E50C2F200000380138803EB07
:1040E000430301EB43039B889B0045F64C7CC2F2E3
:1040F000000CACF80030138803EB430301EB4303DF
:10410000B3F804E045F6607CC2F2000CDCF8003045
:104110007344CCF80030138803EB430301EB4301F5
:10412000498845F65673C2F200031980118801319F
:104130001180B2F800C044F6D351C1F26201ACFB69
:10414000013149094FF4FA7301FB13C11180008852
:1041500018B9FFE7FCF79AFCFFE745F62D52C2F2CB
:1041600000020592AF20107045F64E51C2F20001D8
:104170004B78104600F8013F0988917045F64C7164
:10418000C2F2000106914B78D370098811710421A5
:10419000FFF7EEFE0599024645F64250C2F20000D6
:1041A000028042784A710088887145F6EC60C2F25C
:1041B00000000722FEF7FEFA0146069845F65B72FC
:1041C000C2F20002117045F65671C2F200010A886F
:1041D00040F23001C2F2000101EB8201028845F693
:1041E0000B20C2F20000FCF71CF840F20401C2F2FE
:1041F00000010020087045F60A21C2F20001087093
:1042000044F65061C2F200010870FFE740F204007A
:10421000C2F200000078002842D1FFE7FFE745F630
:104220000A20C2F20000007808B9FFE7F7E744F679
:104230005060C2F20000007812280DD1FFE740F272
:104240000401C2F200010120087044F65061C2F27C
:1042500000010020087022E045F63C51C2F2000146
:1042600008680130086045F60A21C2F2000100200A
:10427000087044F65061C2F20001087045F6EC6027
:10428000C2F2000045F62D51C2F200010722FEF7EE
:1042900091FA45F65B71C2F200010870FFE7B5E7DD
:1042A00045F64C70C2F200000390018845F60B20E1
:1042B000C2F200000490FFF75BFE0399049A0346E4
:1042C00045F64250C2F2000003804378B1F800C0C6
:1042D00002F80C30008809881144487040F204014B
:1042E000C2F2000100200870FFE745F60A21C2F281
:1042F00000010020087044F65061C2F2000108700D
:1043000045F64C70C2F200000088023082B245F6D9
:10431000EC60C2F2000045F60B21C2F20001FEF78C
:1043200049FA45F65B71C2F200010870FFE745F6F5
:104330000A20C2F20000007808B9FFE7F7E744F668
:104340005060C2F200000078432807D1FFE740F236
:104350000401C2F200010120087010E044F6506030
:10436000C2F200000078142808D1FFE745F6445156
:10437000C2F20001086801300860FFE7FFE7FFE7CD
:1043800040F20400C2F2000000780028ADD0FFE740
:10439000FFE745F65C70C2F20000007807282CD1D8
:1043A000FFE745F65C71C2F2000100200290087040
:1043B00040F22C01C2F2000101200190087045F684
:1043C0001860C2F20000FDF72DFF0199029841F23A
:1043D0001402C4F20002116041F21001C4F20001A3
:1043E000086045F66060C2F200000268D16841F0E2
:1043F0000101D160FDF716FFFFE743E64100080227
:1044000018BF04200A0E18BF40F001004FF07F4291
:1044100032EA010108BF40F00200012808BF052070
:104420007047000000B510EE101A2DED028B81B020
:10443000524A6846B2EB410F2ED94FF0E640B0EB3E
:10444000410F94BF00204FF0FF3000900098B0EE75
:10445000408A00286ADB10F0010F4BD068EE080A92
:104460009FED471A9FED470A00EE810A9FED461A1D
:1044700010F0020F00EE801AB7EE000A00EE810A7B
:1044800002BF01B0BDEC028B00BD00BF01B0B1EEB8
:10449000400ABDEC028B00BD3C4B21F00042934230
:1044A00041D911F0004FDFED3A0A20EE201ADFED7E
:1044B000390A19BF31EE601A71EE200A31EE201A66
:1044C00071EE600ABDEEE01A11EE100A9FED321A8D
:1044D00000F0030000EEC10A9FED301A009000EEDC
:1044E000C10A9FED2F1A00EEC10A9FED2E1A00EEB1
:1044F000C10AABE728EE080A9FED2B1ADFED2B0A65
:1045000010F0020F40EE010A9FED291A00EE201A6A
:1045100061EE000AB0EE480A08EE200AB6D101B0FA
:10452000BDEC028B00BD00F059F88FE718EE100AC1
:104530004000B0F17F4F0DD218EE100AFFF75EFF7A
:10454000042808BF00F042F8B0EE480A01B0BDEC04
:10455000028B00BD09D1012000F0FAF801B0BDECDA
:10456000028B5DF804EB00F029B801B0B0EE480A08
:10457000BDEC028B5DF804EB00F01CB8B61F927E18
:10458000B93AB2BACA9F2A3DDDFFFFBE490E49467D
:1045900083F9223F0000004B0000C93F00A0FD3915
:1045A0000020A2331A61342C336D4CB9DA82083CF6
:1045B000A0AA2ABE30EE000A70470000DFED020A12
:1045C00080EEA00A70470000000000009FED020A84
:1045D00020EE000A70470000000000102DE9F001F5
:1045E0004FF07F42B2EB410F9FBF4FF0FF310160B0
:1045F000BDE8F00170474FF0004242EA0123C1F3E9
:10460000C752783A551112F01F0C434CCCF12006DA
:104610007C44C1F3C752A2F178024FEA621204EB64
:10462000820254F8254008BFD2E9015612D05568DD
:1046300004FA0CF425FA06F73C43976805FA0CF5E2
:1046400027FA06F8D26807FA0CFCF24045EA08059A
:104650004CEA0206A4FB034CA5FB0352A6FB036332
:104660001D449D4234BF012600261319334416B160
:10467000934202D903E0934201D2012200E00022DA
:10468000624402F1200C9206DC0C42EA443200EE55
:10469000102A5B03DFED210AF8EEC01A00EE103A93
:1046A0004FEA9C1C11F0004FB8EE400AC0F800C061
:1046B00020EE201A00EE105ADFED190AB8EE400A7B
:1046C00020EE200A71EE810A70EE800A10EE902A28
:1046D00002F500626FF30B0200EE902A70EEE11A11
:1046E00031EEC11ADFED101A30EE411A9FED0D0ABE
:1046F00020EE800A01EE210A9FED0C1A00EE810ADD
:1047000004BFBDE8F0017047CCF180510160BDE805
:10471000F001B1EE400A7047480100000000003689
:104720000000802C22AAFD29DB0FC92F0000C92F11
:1047300002E008C8121F08C1002AFAD1704770476A
:10474000002001E001C1121F002AFBD170470000C8
:1047500001490860704700000000002000000000D0
:104760006E83F9A22915444ED15727FCC0DD34F5DC
:10477000999562DB4190433CAB6351FE0000000021
:104780000000000001020304060708090000000001
:1047900001020304000610160006101600000008AF
:1047A00000080000C84700080000002028000000A2
:1047B00030470008F047000828000020480D01009D
:1047C0004047000800000000000000000100000059
:1047D0000024F40010270100010001000100010085
:1047E00001000500010000001000000000000000B2
:040000050800018965
:00000001FF
